:080000000C94D1010C940000E6
:100008000C9400000C9400000C9400000C94000068
:100018000C9400000C9400000C9400000C94000058
:100028000C9400000C9400000C9400000C94000048
:100038000C9400000C9400000C9400000C94000038
:100048000C9400000C9400000C9400001027E803A6
:1000580064000A0001000010000110000100950270
:100068000000020004006002620264026602680284
:100078006A026C026E0270027202740276027802E0
:100088007B027D027F028202840286028702890245
:100098008B028C028E0290029102930296029702C2
:1000A80098023100340037002A0032003500380049
:1000B8003000330036003900230031300032300080
:1000C800312944656C6574652020203229496E7396
:1000D800657274203329486973746F72792D3E00F4
:1000E800312944656C6574652020203229496E7376
:1000F800657274203329486973746F7279202D3EB4
:10010800002000456E74657220494420466F7220B5
:1001180044656C657465202D3E2000456E746572DB
:1001280020494420466F7220496E73657274202DF1
:100138003E2000756E6B6E6F776E20436F6D6D613C
:100148006E6421004D656D6F727920497320456D8D
:100158007074790041636365737320002044656C93
:10016800657465642E00204E6F7420466F756E644A
:100178002E00257300204772616E746564004D651A
:100188006D6F72792049732046756C6C0025640088
:100198002D004163636573732044656E696564214E
:1001A80000416363657373204772616E74656421EF
:1001B80000456E746572204944202D3E20000100E0
:1001C8002D4E414E00494E460000080006006600CC
:1001D80002006002AA0002006202AC00020064028F
:1001E800AE0002006602B00002006802B20002001F
:1001F8006A02B40002006C02B60002006E02B80087
:1002080002007002BA0002007202BC00020074020E
:10021800BE0002007602C0001800DE036E00030074
:100228007802C20002007B02B80002007D02B8001A
:1002380003007F02C50002008202B80002008402A7
:10024800B80001008602AB0002008702B800020075
:100258008902B80001008B02AB0002008C02B800D2
:1002680002008E02B80001009002AB000200910269
:10027800B80002009302B8001E00F60386000100D1
:100288009502AB0001009602AB0002001404A40022
:1002980001009702AB0002001604A6002000980295
:1002A800C80002001804A8000100B802AB0003004F
:1002B800B902C2000300BC02E5000200BF02090146
:1002C8000100C102AB000100C202AB001800C3026A
:1002D8000B011800DB020B011800F30223011100C7
:1002E8000B033B0110001C034C0110002C034C01B4
:1002F80010003C034C0101004C03AB0002004D030D
:10030800B80008004F035C010A00570364010C00A1
:1003180061036E0101006D03AB0002006E03B800BB
:1003280001007003AB00080071035C010900790348
:100338007D010F008203860101009103AB000100DB
:100348009203AB0002009303B00001009503AB00D9
:1003580002009603AA0002009803B20002009A0362
:10036800B00001009C03AB0002009D03980102004D
:100378009F03AA000F00A1039A010200B003B00076
:100388000F00B2039A011000C103A9010D00D103A7
:10039800B90101001A04C6010000F894EE27ECBB6D
:1003A800F1E0FBBFEBBFE5BF8DE0A2E0BB27ED931B
:1003B8008A95E9F780E098E0A0E6ED930197E9F7E0
:1003C800E2EDF1E085919591009761F0A591B591E5
:1003D80005901590BF01F00105900D920197E1F786
:1003E800FB01F0CFEFE5EDBFE8E0EEBFC0E6D2E0FD
:1003F8000C94DE04AA93E881EBBBC09804C0AA93CE
:10040800E881EBBBC09AC198C29A83E08A95F1F75C
:10041800C2980E94470721960895EFEFEABBE7BB11
:10042800C29880EA9FE00197F1F7A8E3E3DFACE028
:10043800E1DFA1E0DFDF80EA9FE00197F1F7A6E0C6
:10044800D9DF0895AA932497E0E8E883E0ECE983EC
:10045800E4E9EA83E4EDEB83EC81F0E03197DE0137
:10046800AE0FBF1FEC91AD81AE0FA150C3DF0E944C
:10047800470727C1BA93AA931A9310E0A981BA81B2
:100488000E942205A12FB0E0AE17BF0748F4A9814A
:10049800BA81EE27A10FBE1FAC91B1DF1F5FEECF6F
:1004A800188123960895A1E0A5DF0E944707E1E09F
:1004B800EA93A1E0C7DF0E9447070895909804C017
:1004C800909A919802C0909A919A92980E944C079B
:1004D8009098919892980895E6DFE0911804F09129
:1004E8001904FA93EA93E8EEF0E00E945007A0910D
:1004F8001804B0911904BEDFE1E0BE2E08951A93E6
:1005080010E00E945707EBEAF0E00E945007CBDFAB
:1005180010E0143068F50E945E07A8EBB2E00E9474
:100528000105E03041F00E945E07A9EBB2E00E94AD
:100538000105E03009F41AC00E945707A6E01A9F87
:10054800F0010E946907DF010E946F07ACEBB2E07F
:100558000E946F07A6E01A9FF0010E947207DF0150
:100568000E946F07AFEBB2E00E94F0041F5FD1CF8B
:10057800A0911604B09117040E94780794DF0E9496
:100588005707A1ECB2E00E940105DD24BB24E4E09A
:10059800CE2E7A926A92A2ECB2E00E9415051991C9
:1005A80008951A930A9303EC12E07DDFE1E0EC155D
:1005B80059F41A930A93ABEDB2E00E941505E1E0F5
:1005C800DE2ED80157DF20C0E2E0EC1559F41A936B
:1005D8000A93A3EFB2E00E941505E2E0DE2ED801EF
:1005E80049DF12C0E3E0EC1521F489DFE3E0DE2EF9
:1005F8000BC01A930A93ABE0B3E00E941505D8012B
:100608000E94780750DFDD24BB24E4E0CE2ECFC162
:100618000E9446080CE113E02CE233E050E043DF8F
:10062800E1E09E2EE2E0AE1640F43A932A93ACE362
:10063800B3E00E94150589013AC0E4E09E16E0F493
:100648000E947B07FA93EA937A926A920E94800743
:1006580089F40E947B07FA93EA93ACE4B3E00E9422
:100668008507FA93EA93ADE4B3E00E941505AA94CE
:1006780051E002C09394E1CF513079F41A930A9370
:10068800AFE4B3E00E948C07D3010E94F0048F010D
:100698001A930A93A7E5B3E007C01A930A93D30104
:1006A8000E948C07A1E6B3E00E94F0048F01D801F4
:1006B8000E949107ADE6B3E00E94150599240E94B7
:1006C8004D08269608951A930A930EE613E0992486
:1006D800EADEE4E0AE16B0F5E4E09E16F8F41A930C
:1006E8000A930E947B07DF010E948C07E0E7F3E092
:1006F800FA93EA930E94800779F40E947B07FA93A1
:10070800EA93EAE7F1E0FA93EA93F3016627772799
:100718000E949B07A39402C09394DECF0E94A20775
:10072800A1E7B3E00E9415050E94A2070E947B077B
:10073800DF010E94A9070E94A207A9E7B3E00E946F
:10074800A90706C00E94A207A2E8B3E00E94150507
:10075800A0911404B09115040E949107A1E9B3E097
:100768000E9415050E94A207A2E9B3E00E941505A0
:1007780099241DC10E94480810E023E933E093DE64
:10078800A92DE4E00E942E08EF93D3010E942205D0
:10079800DF01E0E0F0E00E943308AF91EA23A9F11D
:1007A8007A926A920E947B07FA93EA930E948007E2
:1007B80051F501E00E94B007DF010E94FC061E2FE0
:1007C8001F5F0E94B007FA93EA93A5E9B3E00E947D
:1007D8008507FA93EA93E5E9F1E0FA93EA93E12FC2
:1007E800FF27662777270E949B07992029F43A93C9
:1007F8002A93A6E9B3E004C03A932A93A8E9B3E0A0
:100808000E94150502C09394BBCF013031F03A9392
:100818002A93AAE9B3E00E9415057A926A92ACE994
:10082800B3E00E9415059924F9010E944F08249607
:1008380008951A930A930DE913E0E5B3EF700E9447
:10084800B507EFE0E515C9F70E94BA07EFE0E5152F
:10085800D9F30E94BA07EFE0E515B1F3EFEE0E9475
:10086800B507EFE0E51511F0442413C0EFED0E9441
:10087800B507EFE0E51519F0E1E04E2E0AC0EFEB01
:100888000E94B507EFE0E51519F0E2E04E2E01C031
:10089800E5CFEEE0E515E1F4E1E0EB1579F444206D
:1008A80009F409C0E1E0E41511F4E2E004C0E2E073
:1008B800E41519F4E3E0CE2E74DE09C00E94C207E5
:1008C8000E94C9070E94D0070E94C907D3DD6FC0E4
:1008D800EDE0E51549F40E94C207E052FC4F0E9482
:1008E800D807E052FC4F5EC0EBE0E51549F40E94E2
:1008F800C207EE51FC4F0E94D807EE51FC4F52C080
:100908000E94DD07E2E00E942908E02111F0DBDE09
:100918004EC00E94DD07E1E00E942908E02111F0A5
:1009280077DE45C0442069F51A930A9323DFDF0177
:100938000E941505E1E0E81589F41A930A93AFE9D6
:10094800B3E00E940105E03011F4C6DD05C0A1EA5C
:10095800B3E00E947807A7DD882412C01A930A938F
:10096800A0EBB3E00E940105E03029F4A2EBB3E06C
:1009780081DDA6DD04C0A1ECB3E07CDD9FDD93DD65
:1009880016C0E2E0E41531F4A1EDB3E073DDE1E077
:100998008E2E0DC00E94C207EC51FC4F0E94D80752
:1009A800EC51FC4FDF010E943908DF0163DD09913A
:1009B80019910895889A899A8A9A90989198929804
:1009C800E0EFE4BBEFEFE5BB28DDE1E0EA93A1E06F
:1009D80039DD2FDFFECFFFCFBA93AA93E991F991C2
:1009E800A991B991CD016D916623E9F711976191AC
:1009F8006D936623E1F7FC010895BA93AA93E991F0
:100A0800F991A991B9916D917191671721F46623B4
:100A1800D1F7EE270895671BE1F3E1E008F4E2500F
:100A28000895BA93AA93E991F991A991B991CD0141
:100A380061916D936623E1F7FC010895BA93AA9337
:100A4800A991B991EE27FF276D91662311F0319690
:100A5800FBCF0895BA93AA93AA27BB27E991F991E6
:100A68000590002011F01196FBCFFD010895AA937F
:100A7800662777278991E991F991A991B9918823F6
:100A880049F08A956D917191671721F46623B9F73A
:100A9800EE270895671BE1F3E1E008F4E2500895BA
:100AA800BA93AA931A930A93AA81BB8112960E94B9
:100AB8003908309759F1AA81BB8114960E943908E8
:100AC8008F01309761F00230E0E01E0798F0F801DE
:100AD80031978F01AA81BB811496ED93FC93AA816B
:100AE800BB811296ED91FD913196FE93EE9331976D
:100AF800AC81A083AA81BB810E943908FF232AF018
:100B0800ED91FD913196FE93EE9306C0AA81BB81CB
:100B1800EFEFFFEFED93FC93198108812596089577
:100B2800BA93AA9326970E94460810E0AC85BD8523
:100B3800E0E0F0E0ED93FC93EA89FB893196EA8BDB
:100B4800FB8B3197E4912E2FE03009F415C1E12F8A
:100B5800E03039F4253211F411E002C00E94E407B4
:100B68000AC1E130A9F4253219F40E94E40702C150
:100B780012E040E000E02D3211F401E0FCC02B321D
:100B880011F44BE2F8C0203211F440E2F4C002C084
:100B9800E23039F450E013E0203311F40068EBC080
:100BA80003C0E33009F0E7C0203310F02A3308F01F
:100BB80007C0AAE05A9F502DE22FE0535E0FDBC01A
:100BC800E22FE33649F40E94EB07E889F989A4810A
:100BD800AA930E94F107CEC0E33741F40E94EB07C5
:100BE8000E94F7070E9422051E2F0AC0E03761F411
:100BF8000E94EB070E94F7070E942E051E2F08602F
:100C080002600F7730E034C0E43611F0E93611F4B1
:100C1800046002C0E53731F4E4E5F0E0EE83FF83D9
:100C280015E00CC0E83511F4086003C0E83709F096
:100C3800A1C0EEE5F0E0EE83FF8314E002FF14C0EC
:100C48000E94EB070E940108AB85AA233AF4EA85C3
:100C5800FB850E941E08EA87FB874DE2403011F0B1
:100C68001F5F01C00B7F04C00E94EB070E940108B0
:100C780000FD11C0151778F407FF08C002FF04C073
:100C88000B7F242F115001C020E301C020E20E94F5
:100C9800E4075150EFCF312F01FF17C03030A1F0DA
:100CA80003FF06C0EE81FF812591EE83FF8305C017
:100CB800AE81BF812D91AE83BF830E94E40750307F
:100CC80009F051503150EACF4BC020E3EE81FF814B
:100CD8000E943D08E887F987EE81FF813296EE830E
:100CE800FF83E885F985AA85BB85AE17BF0750F055
:100CF8002F5FA885B985EA85FB85EA1BFB0BEA8788
:100D0800FB87EFCF2A3328F003FF02C0295F01C019
:100D1800295D04FD1AC0213320F4A885B9851197EF
:100D280009F409C0531710F000FF01C013C020E2F6
:100D380007FF0BC020E3006102FF07C00B7F4A9347
:100D48000E94F107503009F051500E94E4075030DA
:100D580009F051503150A885B985129708F0B5CFE0
:100D680000FF08C0503031F05150E0E2EA930E9491
:100D7800F107F8CF10E0E0CEAC85BD850E943908B8
:100D88000E944D0864960895FF92F82E26970E94B7
:100D980048080E940908309719F4EFEFFFEF23C0C5
:100DA800DE0116960E941A088D010E940908EE833A
:100DB800FF83E0E0E887E987DE011A960E941A08B7
:100DC8000E943908FA93EA931A930A93E4E5F5E046
:100DD800FA93EA93DE011A96A3DE9F01AE81BF81E2
:100DE800E0E0EC93F9010E944F082A96FF900895DD
:100DF800BA93AA93B981A881EC918A2FAE2F0E9449
:100E08003C07A82FEE2311F01196F6CFE894EC9149
:100E1800ED3211F4689402C0EB3209F4119666279A
:100E28007727EC918A2FAE2F0E943307A82FEE2345
:100E380079F0FB01660F771F660F771F6E0F7F1F14
:100E4800660F771FED91FF27E0536E0F7F1FE9CFE5
:100E5800FB011EF4E095F095319622960895AA9329
:100E6800E1E0F991F03310F0FA3308F0EE27089535
:100E7800AA93E1E0F991F03229F0F93010F0FE3050
:100E880008F0EE27089588EC90E00197F1F70895AF
:100E9800A4E6B0E00C941008FA93EA9380E00E946C
:100EA800C80624960895E0911604F0911704FA9361
:100EB800EA930895A6E01A9FF001EA50FC4FDF017B
:100EC8000E943908FA93EA930895EA50FC4FDF012B
:100ED8000E94390808950E94F004E5CFE650FC4FBF
:100EE800DF010E94390808950E943E02D1CFE92D02
:100EF800A6E0EA9FF001E9CFA2E00E943B05E030BE
:100F080008950E941505E92DA6E0EA9FF001E6CFB5
:100F18000E9415051A930A9308950E943E020E94A2
:100F280067020E945702DD247A926A9208950E940D
:100F3800410884E00E94C80628960895E0911404A8
:100F4800F0911504FA93EA9308950E94F004E0934F
:100F58001404F09315040895E92DA6E0EA9FF00122
:100F6800BDCFE5BBE3B3EF705E2E0895A4E1B0E01A
:100F78000E941008E3B3EF705E2E08957A926A9289
:100F8800E42DF0E00E9422080895E252FC4FDF01B0
:100F98000E943908DF0108950E94F0043F01E42D02
:100FA800F0E00E9422080895DF010E943908DF015D
:100FB800F3CFA42DE0E00E9429080E2EAD2D089550
:100FC8002A93AD85BE85EF85F88909950895E88946
:100FD800F9893497E88BF98B0895AD85BE85EF853F
:100FE800F88909950895A889B98914960E9439083D
:100FF800EE83FF83AE81BF810895A889B9891496CD
:101008000E943908EA87FB870895DE011C960E9432
:101018001A080E9439080895109639F080ED97E073
:101028000197F1F7A8951197C9F708950024AF0D16
:10103800B01D0895F195E195F0400895EE0FFF1F5A
:10104800EE0FFF1FEE0FFF1F0895EA17E1E009F00A
:10105800EE270895AE17E1E008F0EE270895EA17A5
:10106800FB07E1E008F0EE270895ED91FC91119758
:1010780008950590F491E02D08957A936A93FA9370
:10108800EA9308955A934A933A932A931A930A93A0
:1010980008955D814C813B812A81198108810895D9
:00000001FF
